S014000046726F6D5F736372617463682E7372656335
S11300000C942A020C9473050C949C050C944702DE
S11300100C9447020C9447020C9447020C94470238
S11300200C9447020C9447020C9447020C94470228
S11300300C9447020C9447020C9447020C94470218
S11300400C9447020C9447020C9447020C94470208
S11300500C944702000000000000000000000000B3
S1130060000000000000000000000000000000008C
S1130070000000000000000000000000000000007C
S1130080000000000000000000000000000000006C
S1130090000000000000000000000000000000005C
S11302D0000000000000003F01013F2020202020FA
S11302E02020203F01013F20202020202020203FEB
S11302F001013F20202020202020203F01013F2019
S1130300202020202020203F01013F2020202020E9
S11303102020203F01013F20202020202020203FBA
S113032001013F20202020202020203F01013F20E8
S1130330202020202020203F01013F2020202020B9
S11303402020203F01013F202020202020202000C9
S11303500000000000000000000000000000000099
S11303600000000000000000000000000000000089
S11303700000000000000000000000000000000079
S11303800000000000000000000000000000000069
S11303900000000000000000000000000000000059
S11303A00000000000000000000000000000000049
S11303B00000000000000000000000000000000039
S11303C00000000000000000000000000000000029
S11303D00000000000000000000000000000000019
S11303E00000000000000000000000000000000009
S11303F000000000000000000000000000000000F9
S113040000000000000000000000000000000000E8
S113041000000000000000000000000000000000D8
S113042000000000000000000000000000000000C8
S113043000000000000000000000000000000000B8
S113044000000000000000000000000000000000A8
S11304500000000011241FBECFE5D8E0DEBFCDBFF1
S113046012E0A0E6B0E0EEEBF0E102C005900D92E0
S1130470AA37B107D9F722E0AAE7B2E001C01D927A
S1130480AE37B207E1F70E949F040C945D080C9408
S113049000008BBBA898A998AA9A8AE18A95F1F7DB
S11304A000C0AA988AE18A95F1F700C008958FEFF9
S11304B08ABB84BB85B3886385BB2FEF89EF90E04B
S11304C0215080409040E1F700C000008EE30E947C
S11304D0490280E40E94490288EB0E94490280ECB0
S11304E00E9449028FE30E94490208958BBBA89A97
S11304F0A998AA9A8AE18A95F1F700C0AA988AE194
S11305008A95F1F700C008951F93CF93DF9385B3C5
S1130510886185BB18EB812F0E944902C0E4D0E0BA
S113052080E00E9476022197D9F71F5F103C99F76B
S113053080E40E94490288EB0E944902DF91CF9136
S11305401F9108952F923F924F925F926F927F92E4
S11305508F929F92AF92BF92CF92DF92EF92FF92CF
S11305600F931F93CF93DF9300D000D000D0CDB76B
S1130570DEB78B01E82EF12CC70188549F4F9A8374
S11305808983AB9AAC980E944902F801908199231F
S113059009F459C1222433242E183F083694322CEE
S11305A0222437942794F5E02F1AFCEF3F0A612C9C
S11305B0512C412C0F2EFFE37F2EF02DE12CF12C3A
S11305C049815A819A0140E050E029833A834B8360
S11305D05C8304C02E143F0408F435C1903209F43E
S11305E04FC081E090E09E838D83CD80DE80CE0C71
S11305F0DF1C20E030E040E05FE3662D752D842DA4
S1130600972D0E94C605A62EB72E982E892E0E94DD
S1130610A4067695762F662777956795C616D7062E
S113062029F5ED81FE81359759F180E40E94490254
S113063085B3F8E08F2785BB85B320E1822785BB8E
S113064069817A818B819C810E94DA06262D352D61
S1130650442D572D0E94C6050E94AB06862F0E948A
S113066049026A2C5B2C492C782C76014D815E81E1
S11306704F5F5F4F5E834D834630510509F0B5CF20
S11306802E143F0408F4DFC0F8018081803209F0A1
S113069053C067011E821D82F801808190E080971B
S11306A09C01220F331F220F331FF901E80FF91F9A
S11306B0E05AFF4F2D813E81E20FF31F80810E949B
S11306C076023FEFC31AD30AC6018F739927892B89
S11306D039F585B348E0842785BB85B350E1852788
S11306E085BB69817A818B819C810E94DA06262DE3
S11306F0352D442D572D0E94C6050E94AB06862F2A
S11307000E94490220E030E040E05FE3662D752D51
S1130710842D972D0E94C605662E572E482E792EBD
S11307208D819E8101969E838D83059709F0B4CFB8
S113073095E0E90EF11C81C067011E821D82F8015B
S1130740808190E080979C01220F331F220F331F7A
S1130750F901E80FF91FE05AFF4F2D813E81E20FA6
S1130760F31F80810E9476023FEFC31AD30AC601A9
S11307708F739927892B39F585B348E0842785BB86
S113078085B350E1852785BB69817A818B819C8102
S11307900E94DA06262D352D442D572D0E94C605BC
S11307A00E94AB06862F0E94490220E030E040E020
S11307B05FE3662D752D842D972D0E94C605662E48
S11307C0572E482E792E8D819E8101969E838D838E
S11307D0059709F0B4CF80E00E94760296E0E90E16
S11307E0F11CC7018F739927892B39F585B3E8E08C
S11307F08E2785BB85B3F0E18F2785BB69817A811C
S11308008B819C810E94DA06262D352D442D572D8F
S11308100E94C6050E94AB06862F0E94490220E072
S113082030E040E05FE3662D752D842D972D0E9406
S1130830C605662E572E482E792E0F5F1F4FF801DE
S113084090819111C7CE80E40E94490226960FB68A
S1130850F894DEBF0FBECDBFDF91CF911F910F91F2
S1130860FF90EF90DF90CF90BF90AF909F908F90CC
S11308707F906F905F904F903F902F9008958F924C
S11308809F92AF92BF92CF92DF92EF92FF920F931B
S11308901F93CF93DF93AB9AAC98EC017C012CEFC0
S11308A0F21A0F2E812C912CA12CFFE3BF2EF02DD8
S11308B06894CC24C3F86894DD24D4F829C0FE01DC
S11308C084910E9476022196C017D107C1F785B39F
S11308D08C2585BB85B38D2585BB20E030E048E3BE
S11308E053E4C501B4010E94C6050E94AB06862FDD
S11308F00E94490220E030E040E05FE3C501B4011A
S11309000E94C6054B015C01E8010E151F0521F08C
S11309108E01005C1F4FD3CF80E40E94490288EB14
S11309200E944902DF91CF911F910F91FF90EF90A8
S1130930DF90CF90BF90AF909F908F9008958F924B
S11309409F92AF92BF92CF92DF92EF92FF920F935A
S11309501F93CF93DF93CDB7DEB765970FB6F894A7
S1130960DEBF0FBECDBF0E9457028FEB81BB80E478
S113097082BB85B5886085BD85B5806485BD85B538
S1130980806285BD8DE183BD85B58E7F85BD85B5CE
S11309908D7F85BD85B5846085BD1FBC1DBC1CBC19
S11309A080E288BF81E48EBD08B605FEFDCFA6B403
S11309B0B7B480E288BF81E08EBD08B605FEFDCFE6
S11309C006B517B580E288BF81E48EBD08B605FE82
S11309D0FDCFC6B4D7B480E288BF1EBCA016B10652
S11309E008F05CC00C151D0508F058C0CA18DB08D7
S11309F0E12CF12C60E074E284EF90E0A701960111
S1130A000E94D507CA01B9012AE0AE014F5F5F4FCA
S1130A100E940208B8016A197B0980E090E00E94F4
S1130A20DA064B015C01C701B6010E94DA069B019C
S1130A30AC01C501B4010E94320620E030E048EC6C
S1130A4052E40E9468070E94A406DC01CB014AE03C
S1130A50BE01615F7F4F0E94F70784E590E00E942A
S1130A603F0480E80E94490260E472E082E00E9450
S1130A70A202BE016F5F7F4F82E00E94A20280EC5F
S1130A800E94490264E572E083E00E94A202BE0172
S1130A90615F7F4F83E00E94A20207C00E9484022C
S1130AA06AE672E082E00E94A2022FEF80E792E001
S1130AB0215080409040E1F700C0000080E090E0C9
S1130AC065960FB6F894DEBF0FBECDBFDF91CF9110
S1130AD01F910F91FF90EF90DF90CF90BF90AF9058
S1130AE09F908F9008951F920F920FB60F9211242A
S1130AF02F933F934F935F936F937F938F939F9322
S1130B00AF93BF93EF93FF93E0917C02F0917D024A
S1130B10309709F00995FF91EF91BF91AF919F91A3
S1130B208F917F916F915F914F913F912F910F9092
S1130B300FBE0F901F9018951F920F920FB60F9231
S1130B4011242F933F934F935F936F937F938F93CE
S1130B509F93AF93BF93EF93FF93E0917A02F09149
S1130B607B02309709F00995FF91EF91BF91AF9106
S1130B709F918F917F916F915F914F913F912F91B1
S1130B800F900FBE0F901F9018955058BB27AA279F
S1130B900E94DD050C942E070E94200738F00E9465
S1130BA0270720F039F49F3F19F426F40C941D070D
S1130BB00EF4E095E7FB0C941707E92F0E943F071A
S1130BC058F3BA17620773078407950720F079F47E
S1130BD0A6F50C9461070EF4E0950B2EBA2FA02D08
S1130BE00B01B90190010C01CA01A0011124FF27D6
S1130BF0591B99F0593F50F4503E68F11A16F040D1
S1130C00A22F232F342F4427585FF3CF46953795CF
S1130C102795A795F0405395C9F77EF41F16BA0B94
S1130C20620B730B840BBAF09150A1F0FF0FBB1F42
S1130C30661F771F881FC2F70EC0BA0F621F731F8B
S1130C40841F48F4879577956795B795F7959E3FE8
S1130C5008F0B0CF9395880F08F09927EE0F979579
S1130C60879508950E9446060C942E070E94270734
S1130C7058F00E94200740F029F45F3F29F00C94BB
S1130C80170751110C9462070C941D070E943F072B
S1130C9068F39923B1F3552391F3951B550BBB27A7
S1130CA0AA2762177307840738F09F5F5F4F220FEC
S1130CB0331F441FAA1FA9F335D00E2E3AF0E0E8E3
S1130CC032D091505040E695001CCAF72BD0FE2F2D
S1130CD029D0660F771F881FBB1F261737074807C1
S1130CE0AB07B0E809F0BB0B802DBF01FF27935879
S1130CF05F4F3AF09E3F510578F00C9417070C941F
S1130D0062075F3FE4F3983ED4F386957795679541
S1130D10B795F7959F5FC9F7880F911D96958795AD
S1130D2097F90895E1E0660F771F881FBB1F6217CC
S1130D3073078407BA0720F0621B730B840BBA0B8A
S1130D40EE1F88F7E09508950E94AB066894B111F0
S1130D500C94620708950E94470788F09F5798F003
S1130D60B92F9927B751B0F0E1F0660F771F881FAC
S1130D70991F1AF0BA95C9F714C0B13091F00E94C6
S1130D806107B1E008950C946107672F782F8827D5
S1130D90B85F39F0B93FCCF3869577956795B395ED
S1130DA0D9F73EF490958095709561957F4F8F4F5C
S1130DB09F4F0895E89409C097FB3EF49095809561
S1130DC0709561957F4F8F4F9F4F9923A9F0F92F0D
S1130DD096E9BB279395F695879577956795B7958B
S1130DE0F111F8CFFAF4BB0F11F460FF1BC06F5F71
S1130DF07F4F8F4F9F4F16C0882311F096E911C083
S1130E00772321F09EE8872F762F05C0662371F0A3
S1130E1096E8862F70E060E02AF09A95660F771FB7
S1130E20881FDAF7880F9695879597F9089597F9AB
S1130E309F6780E870E060E008959FEF80EC08957C
S1130E4000240A94161617061806090608950024A5
S1130E500A9412161306140605060895092E03941F
S1130E60000C11F4882352F0BB0F40F4BF2B11F493
S1130E7060FF04C06F5F7F4F8F4F9F4F089557FDF2
S1130E809058440F551F59F05F3F71F04795880FF4
S1130E9097FB991F61F09F3F79F08795089512168B
S1130EA013061406551FF2CF4695F1DF08C0161637
S1130EB017061806991FF1CF8695710561050894E8
S1130EC00895E894BB2766277727CB0197F90895FF
S1130ED00E947B070C942E070E94200738F00E9482
S1130EE0270720F0952311F00C9417070C941D0785
S1130EF011240C9462070E943F0770F3959FC1F37D
S1130F00950F50E0551F629FF001729FBB27F00DB3
S1130F10B11D639FAA27F00DB11DAA1F649F662708
S1130F20B00DA11D661F829F2227B00DA11D621F57
S1130F30739FB00DA11D621F839FA00D611D221F11
S1130F40749F3327A00D611D231F849F600D211DF5
S1130F50822F762F6A2F11249F5750409AF0F1F078
S1130F6088234AF0EE0FFF1FBB1F661F771F881FE1
S1130F7091505040A9F79E3F510580F00C941707FB
S1130F800C9462075F3FE4F3983ED4F3869577951B
S1130F906795B795F795E7959F5FC1F7FE2B880F87
S1130FA0911D9695879597F90895A1E21A2EAA1B8B
S1130FB0BB1BFD010DC0AA1FBB1FEE1FFF1FA21705
S1130FC0B307E407F50720F0A21BB30BE40BF50B02
S1130FD0661F771F881F991F1A9469F7609570958B
S1130FE0809590959B01AC01BD01CF010895BB276D
S1130FF04A3031F4992322F4BDE2909581959F4FB4
S11310000C943408BB272A3051F4992342F4BDE2EE
S113101090958095709561957F4F8F4F9F4F0C945D
S11310201208BB27FA01A62F6217710581059105E5
S1131030330B30FB66F0AA27660F771F881F991FB2
S1131040AA1FA21710F0A21B63953850A9F7A05D40
S1131050AA3308F0A95DA19336F7B111B1931082B8
S1131060CA010C944D08BB27FB015527AA27880FFA
S1131070991FAA1FA41710F0A41B83955051B9F708
S1131080A05DAA3308F0A95DA193009779F7B11187
S1131090B1931192CB010C944D08DC01FC01672F34
S11310A071917723E1F7329704C07C916D9370833B
S11110B06291AE17BF07C8F30895F894FFCFFE
S11310BE000000000000005F00000007000700149D
S11310CE7F147F14242A7F2A12231308646236495C
S11310DE5522500005030000001C2241000041224D
S11310EE1C0014083E081408083E0808005030007E
S11310FE00080808080800606000002010080402B8
S113110E3E5149453E00427F4000426151494621CD
S113111E41454B311814127F1027454545393C4A39
S113112E4949300171090503364949493606494989
S113113E291E0036360000005636000008142241DF
S113114E0014141414140041221408020151090647
S113115E324979413E7E1111117E7F494949363E0D
S113116E414141227F4141221C7F494949417F0926
S113117E0909013E4149497A7F0808087F00417FE9
S113118E41002040413F017F081422417F404040EE
S113119E407F020C027F7F0408107F3E4141413E96
S11311AE7F090909063E4151215E7F0919294646E8
S11311BE4949493101017F01013F4040403F1F2011
S11311CE40201F3F4038403F6314081463070870E3
S11311DE08076151494543007F414100020408104C
S11311EE200041417F00040201020440404040407F
S11311FE000102040020545454787F484444383883
S113120E44444420384444487F3854545418087E87
S113121E0901020C5252523E7F0804047800447DA8
S113122E40002040443D007F1028440000417F4090
S113123E007C041804787C08040478384444443848
S113124E7C14141408081414187C7C08040408482C
S113125E54545420043F4440203C4040207C1C20E5
S113126E40201C3C4030403C44281028440C505034
S113127E503C4464544C44000836410000007F0046
S113128E00004136080010080810087846414678D8
S113129E2020202020485A202D2D2D2D203E204662
S11312AE72657100202025202D2D2D2D203E2044E9
S11312BE757479204379636C65004F5554204F46FD
S10D12CE2052414E47452121000043
S9030000FC
